:03000000020F7D6F
:0C0F7D00787FE4F6D8FD75814E020FC4A9
:10118B0041005700534554004C52005544005350F6
:10119B000053454C004D0053004C4F57004D4544F8
:0511AB00004849470067
:10116400014A00014E01014100014B3201420002DB
:10117400480000014CFF014DFF01430101440001FF
:06118400470002450000D7
:03000B00020A489E
:100A4800C0E0C0F0C083C082C0D075D000C000C074
:100A580001C002C003C004C005C006C007758CB839
:100A6800758A00E543703CE54270380549E54970F0
:100A7800020548C39432E548940040271546E546E8
:100A8800943C40191545E5459464400E75450B7531
:100A9800460B754201754A00800375463B75480050
:100AA80075490085904DE54D654C7003020BACE52A
:100AB8004CF46003020BA9E54D64FE6009E54D6442
:100AC800FD6003020B65E5437003020BA9E5447062
:100AD8000FE54760047F0080027F018F47020BA962
:100AE800E54D64FE704CE5446401703A7445254751
:100AF800F806C3E49547FFE49400FE7C007D2812C5
:100B08000957EF2463FFE43EFE74452547F8E6D312
:100B18009FEE6480F87480985003020BA9744525F1
:100B280047F87600807BE54E64026075054E741EBA
:100B38008025E544B4011874452547F8E6700DE5AD
:100B480047F40475F028A42463F68055168052E50E
:100B58004E604E154E74E2254BF54B8044E54DB47E
:100B6800FB0E0544E544D3940240367544008031B9
:100B7800E54D64F7702BE54360047F0080027F0138
:100B88008F43754200E5437005754A018003754A35
:100B980000754800754900E4FF1211B0E4FF121116
:100BA800B0854D4CD007D006D005D004D003D00274
:0F0BB800D001D000D0D0D082D083D0F0D0E032A6
:03001B0002110CC3
:10110C00C0E0C0D0758DFC758B66E54A601BE5416F
:10111C00C3954B5004D2A08002C2A00541E541C347
:10112C00946440077541008002C2A0D0D0D0E03258
:100DE200758911758CB8E4F58A758DFC758B66D2A0
:100DF200A9D2ABD2AFD28CD28E120EDFE4FF121187
:100E0200B0E5426003C38001D392A1E5437016E5C9
:100E1200427BFF60067A11798B80047A11798DE426
:100E2200FD7F0280527BFF7A11798FE4FD7F0212EF
:100E32001009E54470087BFF7A1179938012E5442A
:100E42007BFFB401067A11799680047A117999E4CC
:100E5200FD7F321210097BFF7A11799C7D047F029B
:100E6200121009E5477BFF70067A1179A080047A97
:100E72001179A27D047F321210097BFF7A1179A0C9
:100E82007D027F02121009AB457D027F0F12108690
:100E92007BFF7A1179A27D037F02121009AB467D96
:100EA200037F0F121086E54E70087BFF7A1179A43A
:100EB2008011E54E7BFFB401067A1179A880047A8D
:100EC2001179AC7D057F02121009AB4B7D057F3293
:0D0ED2001210867FC87E001211D5020E039B
:1011D500E4FDFCC3ED9FEC9E5013E4FB0BBBC8FC88
:0D11E500E4FB0BBB66FC0DBD00010C80E6B9
:0111F20022DA
:100CDA003000003E5149453E0000427F400000423C
:100CEA0061514946002141454B31001814127F10C9
:100CFA00002745454539003C4A49493000017109F8
:100D0A00050300364949493600064949291E0000AB
:100D1A0036360000007C1211127C007F49494936A0
:100D2A00003E41414122007F4141221C007F494946
:100D3A004941007F09090901003E4149497A007F7A
:100D4A000808087F0000417F4100002040413F0120
:100D5A00007F08142241007F40404040007F020C7F
:100D6A00027F007F0408107F003E4141413E007F20
:100D7A0009090906003E4151215E007F09192946E9
:100D8A000046494949310001017F0101003F4040C5
:100D9A00403F001F2040201F003F4038403F006373
:100DAA001408146300070870080700615149454395
:100DBA000000000000000000000000000000000029
:100DCA000000000000000000000000000000000019
:080DDA00000000000000000011
:0A1009008F1F8D208B218A2289237E
:10101300E4F524F525F526AB21AA22A9238526820A
:101023007583001208F6FF6059C39441EF500624FC
:10103300D0F524800424CAF524E51FD3947E40050B
:10104300E4F51F0520AD20AF1F1211F3E4F525E5EC
:101053002475F006A424DCF582E4340CF583E582E0
:101063002525F582E43583F583E493FF12121105F8
:1010730025E525C3940640D77406251FF51F0526CD
:02108300809556
:011085002248
:0610DB008F2A8D2B8B2CE7
:1010E100782D7C007D007BFF7A0D79BA7E007F141C
:1010F1001208D07B007A00792DAF2C120BC77B0030
:0B1101007A00792DAD2BAF2A021009F7
:061086008F088D098B0AA2
:10108C00780B7C007D007BFF7A0D79CE7E007F147F
:10109C001208D07B007A00790BAF0A120BC7E50A55
:1010AC00C3940A501C7BFF7A0C79DAAD09AF081295
:1010BC001009E5082406FF7B007A00790BAD098046
:0E10CC000A7B007A00790BAD09AF08121009FB
:0110DA0022F3
:100EDF007F327E001211D57FAE121221E4FF121263
:100EEF00217F101212217F401212217F81121221B5
:100EFF007FCF1212217FA11212217FC81212217FE0
:100F0F00A61212217FA81212217F3F1212217FD326
:100F1F00121221E4FF1212217FD51212217F8012AB
:100F2F0012217FD91212217FF11212217FDA1212B0
:100F3F00217F121212217FDB1212217F4012122108
:100F4F007F201212217F021212217F8D1212217F18
:100F5F00141212217FA41212217FA61212217FAF29
:0E0F6F00121221E4FF1211B0E4FDFF0211F393
:09123100D2B6D2B4C2B4C2B62296
:09123A00C2B6C2B4D2B6D2B4228D
:07113C00AD071212317F78AC
:10114300C2B6E4FEEF30E704D2B48002C2B4D2B632
:10115300C2B6EF25E0FF0EBE08EAD2B4D2B6C2B6DD
:011163002269
:1012110012113C7F40121143AF0512114302123AE1
:1012210012113CE4FF121143AF0512114302123AAD
:0211B000AC078A
:1011B200E4FBEB24B0FF1212217F011212217F10F7
:1011C200121221E4FAAF041212110ABA80F70BBB11
:0211D20008E033
:0111D40022F8
:1011F300AC07ED24B0FF121221EC54F0C4540F4499
:0E12030010FF121221EC540F4401FF021221C1
:080BC7008F1F8B208A21892277
:100BCF00E4F523F524F528F527F526F525E51F701F
:100BDF00117430120923AB20AA21A922900001021F
:100BEF000CD5E51FC394005007E51FF404FF8002E6
:100BFF00AF1FE48F28F527F526F525F524F523E417
:100C0F00FFFEFDFCAB28AA27A926A825C3120A3789
:100C1F006042E47B0AFAF9F8AF28AE27AD26AC257F
:100C2F001209A5EB2430AB20AA21A92285248275B5
:100C3F008300120935AF28AE27AD26AC25E47B0A19
:100C4F00FAF9F81209A58F288E278D268C250523F2
:100C5F00052480ABE51FC394005013AB20AA21A934
:100C6F0022852382758300742D1209350523E4F53F
:100C7F0024E523C313FFE524C39F503EAB20AA21D5
:100C8F00A9228524827583001208F6F529C3E5236E
:100C9F009524FFE49400CF24FFCF34FFFE8F82F51D
:100CAF00831208F68524827583001209358F828E90
:100CBF0083E529120935052480B7AB20AA21A92283
:0A0CCF00852382758300E4120935C5
:010CD90022F8
:100F8900020DE2E493A3F8E493A34003F68001F28F
:100F990008DFF48029E493A3F85407240CC8C33369
:100FA900C4540F4420C8834004F456800146F6DF38
:100FB900E4800B0102040810204080901164E47E53
:100FC900019360BCA3FF543F30E509541FFEE4932D
:100FD900A360010ECF54C025E060A840B8E493A3F4
:100FE900FAE493A3F8E493A3C8C582C8CAC583CA1F
:100FF900F0A3C8C582C8CAC583CADFE9DEE780BED7
:01118A000064
:10080000E709F608DFFA8046E709F208DFFA803EDA
:1008100088828C83E709F0A3DFFA8032E309F608C7
:10082000DFFA8078E309F208DFFA807088828C832F
:10083000E309F0A3DFFA806489828A83E0A3F608E3
:10084000DFFA805889828A83E0A3F208DFFA804CBD
:1008500080D280FA80C680D4806980F28033801094
:1008600080A680EA809A80A880DA80E280CA8033FD
:1008700089828A83ECFAE493A3C8C582C8CCC58375
:10088000CCF0A3C8C582C8CCC583CCDFE9DEE78045
:100890000D89828A83E493A3F608DFF9ECFAA9F0C4
:1008A000EDFB2289828A83ECFAE0A3C8C582C8CC1A
:1008B000C583CCF0A3C8C582C8CCC583CCDFEADE33
:1008C000E880DB89828A83E493A3F208DFF980CC95
:1008D00088F0EF60010E4E60C388F0ED2402B4048E
:1008E0000050B9F582EB2402B4040050AF23234535
:0608F00082239008507302
:1008F600BB010CE58229F582E5833AF583E02250B7
:1009060006E92582F8E622BBFE06E92582F8E22200
:0D091600E58229F582E5833AF583E493221A
:10092300BB010689828A83F0225002F722BBFE01B3
:02093300F322AD
:10093500F8BB010DE58229F582E5833AF583E8F0F8
:10094500225006E92582C8F622BBFE05E92582C8A4
:02095500F2228C
:10095700EF8DF0A4A8F0CF8CF0A428CE8DF0A42EB4
:02096700FE226E
:1009690075F008758200EF2FFFEE33FECD33CDCC45
:1009790033CCC58233C5829BED9AEC99E5829840C8
:100989000CF582EE9BFEED9AFDEC99FC0FD5F0D6A5
:10099900E4CEFBE4CDFAE4CCF9A88222B800C1B9CF
:1009A9000059BA002DEC8BF084CFCECDFCE5F0CB0D
:1009B900F97818EF2FFFEE33FEED33FDEC33FCEB46
:1009C90033FB10D703994004EB99FB0FD8E5E4F901
:1009D900FA227818EF2FFFEE33FEED33FDEC33FCEE
:1009E900C933C910D7059BE99A4007EC9BFCE99AE2
:1009F900F90FD8E0E4C9FAE4CCFB2275F010EF2F27
:100A0900FFEE33FEED33FDCC33CCC833C810D70726
:100A19009BEC9AE899400AED9BFDEC9AFCE899F861
:0E0A29000FD5F0DAE4CDFBE4CCFAE4C8F922F4
:100A3700EB9FF5F0EA9E42F0E99D42F0E89C45F015
:010A4700228C
:00000001FF
